{
  "_format": "hh-sol-artifact-1",
  "contractName": "SubscriptionManager",
  "sourceName": "contracts/SubscriptionManager.sol",
  "abi": [
    {
      "inputs": [
        {
          "internalType": "address",
          "name": "tokenAddress",
          "type": "address"
        },
        {
          "internalType": "uint256",
          "name": "_subscriptionFee",
          "type": "uint256"
        },
        {
          "internalType": "uint256",
          "name": "_subscriptionPeriod",
          "type": "uint256"
        }
      ],
      "stateMutability": "nonpayable",
      "type": "constructor"
    },
    {
      "inputs": [
        {
          "internalType": "address",
          "name": "owner",
          "type": "address"
        }
      ],
      "name": "OwnableInvalidOwner",
      "type": "error"
    },
    {
      "inputs": [
        {
          "internalType": "address",
          "name": "account",
          "type": "address"
        }
      ],
      "name": "OwnableUnauthorizedAccount",
      "type": "error"
    },
    {
      "inputs": [],
      "name": "ReentrancyGuardReentrantCall",
      "type": "error"
    },
    {
      "anonymous": false,
      "inputs": [
        {
          "indexed": true,
          "internalType": "address",
          "name": "previousOwner",
          "type": "address"
        },
        {
          "indexed": true,
          "internalType": "address",
          "name": "newOwner",
          "type": "address"
        }
      ],
      "name": "OwnershipTransferred",
      "type": "event"
    },
    {
      "anonymous": false,
      "inputs": [
        {
          "indexed": true,
          "internalType": "address",
          "name": "user",
          "type": "address"
        },
        {
          "indexed": false,
          "internalType": "uint256",
          "name": "expiresAt",
          "type": "uint256"
        }
      ],
      "name": "Subscribed",
      "type": "event"
    },
    {
      "anonymous": false,
      "inputs": [
        {
          "indexed": true,
          "internalType": "address",
          "name": "user",
          "type": "address"
        },
        {
          "indexed": false,
          "internalType": "uint256",
          "name": "amount",
          "type": "uint256"
        }
      ],
      "name": "TokensWithdrawn",
      "type": "event"
    },
    {
      "inputs": [],
      "name": "acceptedToken",
      "outputs": [
        {
          "internalType": "contract IERC20",
          "name": "",
          "type": "address"
        }
      ],
      "stateMutability": "view",
      "type": "function"
    },
    {
      "inputs": [
        {
          "internalType": "address",
          "name": "user",
          "type": "address"
        }
      ],
      "name": "getRemainingTime",
      "outputs": [
        {
          "internalType": "uint256",
          "name": "",
          "type": "uint256"
        }
      ],
      "stateMutability": "view",
      "type": "function"
    },
    {
      "inputs": [
        {
          "internalType": "address",
          "name": "user",
          "type": "address"
        }
      ],
      "name": "isSubscribed",
      "outputs": [
        {
          "internalType": "bool",
          "name": "",
          "type": "bool"
        }
      ],
      "stateMutability": "view",
      "type": "function"
    },
    {
      "inputs": [],
      "name": "owner",
      "outputs": [
        {
          "internalType": "address",
          "name": "",
          "type": "address"
        }
      ],
      "stateMutability": "view",
      "type": "function"
    },
    {
      "inputs": [],
      "name": "renounceOwnership",
      "outputs": [],
      "stateMutability": "nonpayable",
      "type": "function"
    },
    {
      "inputs": [],
      "name": "subscribe",
      "outputs": [],
      "stateMutability": "nonpayable",
      "type": "function"
    },
    {
      "inputs": [
        {
          "internalType": "address",
          "name": "",
          "type": "address"
        }
      ],
      "name": "subscriptionExpirations",
      "outputs": [
        {
          "internalType": "uint256",
          "name": "",
          "type": "uint256"
        }
      ],
      "stateMutability": "view",
      "type": "function"
    },
    {
      "inputs": [
        {
          "internalType": "address",
          "name": "user",
          "type": "address"
        }
      ],
      "name": "subscriptionExpiresAt",
      "outputs": [
        {
          "internalType": "uint256",
          "name": "",
          "type": "uint256"
        }
      ],
      "stateMutability": "view",
      "type": "function"
    },
    {
      "inputs": [],
      "name": "subscriptionFee",
      "outputs": [
        {
          "internalType": "uint256",
          "name": "",
          "type": "uint256"
        }
      ],
      "stateMutability": "view",
      "type": "function"
    },
    {
      "inputs": [],
      "name": "subscriptionPeriod",
      "outputs": [
        {
          "internalType": "uint256",
          "name": "",
          "type": "uint256"
        }
      ],
      "stateMutability": "view",
      "type": "function"
    },
    {
      "inputs": [
        {
          "internalType": "address",
          "name": "newOwner",
          "type": "address"
        }
      ],
      "name": "transferOwnership",
      "outputs": [],
      "stateMutability": "nonpayable",
      "type": "function"
    },
    {
      "inputs": [
        {
          "internalType": "address",
          "name": "to",
          "type": "address"
        },
        {
          "internalType": "uint256",
          "name": "amount",
          "type": "uint256"
        }
      ],
      "name": "withdraw",
      "outputs": [],
      "stateMutability": "nonpayable",
      "type": "function"
    },
    {
      "inputs": [
        {
          "internalType": "address",
          "name": "to",
          "type": "address"
        }
      ],
      "name": "withdrawAll",
      "outputs": [],
      "stateMutability": "nonpayable",
      "type": "function"
    }
  ],
  "bytecode": "0x60c06040523480156200001157600080fd5b50604051620017a0380380620017a0833981810160405281019062000037919062000318565b336001600081905550600073ffffffffffffffffffffffffffffffffffffffff168173ffffffffffffffffffffffffffffffffffffffff1603620000b55760006040517f1e4fbdf7000000000000000000000000000000000000000000000000000000008152600401620000ac919062000385565b60405180910390fd5b620000c681620001ad60201b60201c565b50600082116200010d576040517f08c379a0000000000000000000000000000000000000000000000000000000008152600401620001049062000403565b60405180910390fd5b6000811162000153576040517f08c379a00000000000000000000000000000000000000000000000000000000081526004016200014a9062000475565b60405180910390fd5b82600260006101000a81548173ffffffffffffffffffffffffffffffffffffffff021916908373ffffffffffffffffffffffffffffffffffffffff16021790555081608081815250508060a0818152505050505062000497565b6000600160009054906101000a900473ffffffffffffffffffffffffffffffffffffffff16905081600160006101000a81548173ffffffffffffffffffffffffffffffffffffffff021916908373ffffffffffffffffffffffffffffffffffffffff1602179055508173ffffffffffffffffffffffffffffffffffffffff168173ffffffffffffffffffffffffffffffffffffffff167f8be0079c531659141344cd1fd0a4f28419497f9722a3daafe3b4186f6b6457e060405160405180910390a35050565b600080fd5b600073ffffffffffffffffffffffffffffffffffffffff82169050919050565b6000620002a58262000278565b9050919050565b620002b78162000298565b8114620002c357600080fd5b50565b600081519050620002d781620002ac565b92915050565b6000819050919050565b620002f281620002dd565b8114620002fe57600080fd5b50565b6000815190506200031281620002e7565b92915050565b60008060006060848603121562000334576200033362000273565b5b60006200034486828701620002c6565b9350506020620003578682870162000301565b92505060406200036a8682870162000301565b9150509250925092565b6200037f8162000298565b82525050565b60006020820190506200039c600083018462000374565b92915050565b600082825260208201905092915050565b7f466565206d7573742062652067726561746572207468616e2030000000000000600082015250565b6000620003eb601a83620003a2565b9150620003f882620003b3565b602082019050919050565b600060208201905081810360008301526200041e81620003dc565b9050919050565b7f506572696f64206d7573742062652067726561746572207468616e2030000000600082015250565b60006200045d601d83620003a2565b91506200046a8262000425565b602082019050919050565b6000602082019050818103600083015262000490816200044e565b9050919050565b60805160a0516112ce620004d26000396000818161029a0152818161054d01526105c1015260008181610276015261043801526112ce6000f3fe608060405234801561001057600080fd5b50600436106100cf5760003560e01c806376a249c71161008c578063b92ae87c11610066578063b92ae87c146101f0578063f2fde38b14610220578063f3fef3a31461023c578063fa09e63014610258576100cf565b806376a249c7146101985780638da5cb5b146101c85780638f449a05146101e6576100cf565b80630aa0a175146100d45780630ca2822c146100f25780630e85117a146101105780632741c07414610140578063451c3d8014610170578063715018a61461018e575b600080fd5b6100dc610274565b6040516100e99190610d54565b60405180910390f35b6100fa610298565b6040516101079190610d54565b60405180910390f35b61012a60048036038101906101259190610dd2565b6102bc565b6040516101379190610d54565b60405180910390f35b61015a60048036038101906101559190610dd2565b610327565b6040516101679190610d54565b60405180910390f35b610178610370565b6040516101859190610e5e565b60405180910390f35b610196610396565b005b6101b260048036038101906101ad9190610dd2565b6103aa565b6040516101bf9190610d54565b60405180910390f35b6101d06103c2565b6040516101dd9190610e88565b60405180910390f35b6101ee6103ec565b005b61020a60048036038101906102059190610dd2565b6106c9565b6040516102179190610ebe565b60405180910390f35b61023a60048036038101906102359190610dd2565b610714565b005b61025660048036038101906102519190610f05565b61079a565b005b610272600480360381019061026d9190610dd2565b610948565b005b7f000000000000000000000000000000000000000000000000000000000000000081565b7f000000000000000000000000000000000000000000000000000000000000000081565b600080600360008473ffffffffffffffffffffffffffffffffffffffff1673ffffffffffffffffffffffffffffffffffffffff168152602001908152602001600020549050804210610312576000915050610322565b428161031e9190610f74565b9150505b919050565b6000600360008373ffffffffffffffffffffffffffffffffffffffff1673ffffffffffffffffffffffffffffffffffffffff168152602001908152602001600020549050919050565b600260009054906101000a900473ffffffffffffffffffffffffffffffffffffffff1681565b61039e610b96565b6103a86000610c1d565b565b60036020528060005260406000206000915090505481565b6000600160009054906101000a900473ffffffffffffffffffffffffffffffffffffffff16905090565b6103f4610ce3565b6000600260009054906101000a900473ffffffffffffffffffffffffffffffffffffffff1673ffffffffffffffffffffffffffffffffffffffff166323b872dd33307f00000000000000000000000000000000000000000000000000000000000000006040518463ffffffff1660e01b815260040161047593929190610fa8565b6020604051808303816000875af1158015610494573d6000803e3d6000fd5b505050506040513d601f19601f820116820180604052508101906104b8919061100b565b9050806104fa576040517f08c379a00000000000000000000000000000000000000000000000000000000081526004016104f190611095565b60405180910390fd5b6000600360003373ffffffffffffffffffffffffffffffffffffffff1673ffffffffffffffffffffffffffffffffffffffff1681526020019081526020016000205490506000429050808211156105bf577f00000000000000000000000000000000000000000000000000000000000000008261057791906110b5565b600360003373ffffffffffffffffffffffffffffffffffffffff1673ffffffffffffffffffffffffffffffffffffffff1681526020019081526020016000208190555061062f565b7f0000000000000000000000000000000000000000000000000000000000000000816105eb91906110b5565b600360003373ffffffffffffffffffffffffffffffffffffffff1673ffffffffffffffffffffffffffffffffffffffff168152602001908152602001600020819055505b3373ffffffffffffffffffffffffffffffffffffffff167f4b90d6788928d63c1821907a6a8b95f40d26562d8fe41b105f7489db9966dfcb600360003373ffffffffffffffffffffffffffffffffffffffff1673ffffffffffffffffffffffffffffffffffffffff168152602001908152602001600020546040516106b49190610d54565b60405180910390a25050506106c7610d29565b565b6000600360008373ffffffffffffffffffffffffffffffffffffffff1673ffffffffffffffffffffffffffffffffffffffff1681526020019081526020016000205442109050919050565b61071c610b96565b600073ffffffffffffffffffffffffffffffffffffffff168173ffffffffffffffffffffffffffffffffffffffff160361078e5760006040517f1e4fbdf70000000000000000000000000000000000000000000000000000000081526004016107859190610e88565b60405180910390fd5b61079781610c1d565b50565b6107a2610b96565b600073ffffffffffffffffffffffffffffffffffffffff168273ffffffffffffffffffffffffffffffffffffffff1603610811576040517f08c379a000000000000000000000000000000000000000000000000000000000815260040161080890611135565b60405180910390fd5b6000600260009054906101000a900473ffffffffffffffffffffffffffffffffffffffff1673ffffffffffffffffffffffffffffffffffffffff1663a9059cbb84846040518363ffffffff1660e01b8152600401610870929190611155565b6020604051808303816000875af115801561088f573d6000803e3d6000fd5b505050506040513d601f19601f820116820180604052508101906108b3919061100b565b9050806108f5576040517f08c379a00000000000000000000000000000000000000000000000000000000081526004016108ec906111ca565b60405180910390fd5b8273ffffffffffffffffffffffffffffffffffffffff167f6352c5382c4a4578e712449ca65e83cdb392d045dfcf1cad9615189db2da244b8360405161093b9190610d54565b60405180910390a2505050565b610950610b96565b600073ffffffffffffffffffffffffffffffffffffffff168173ffffffffffffffffffffffffffffffffffffffff16036109bf576040517f08c379a00000000000000000000000000000000000000000000000000000000081526004016109b690611135565b60405180910390fd5b6000600260009054906101000a900473ffffffffffffffffffffffffffffffffffffffff1673ffffffffffffffffffffffffffffffffffffffff166370a08231306040518263ffffffff1660e01b8152600401610a1c9190610e88565b602060405180830381865afa158015610a39573d6000803e3d6000fd5b505050506040513d601f19601f82011682018060405250810190610a5d91906111ff565b90506000600260009054906101000a900473ffffffffffffffffffffffffffffffffffffffff1673ffffffffffffffffffffffffffffffffffffffff1663a9059cbb84846040518363ffffffff1660e01b8152600401610abe929190611155565b6020604051808303816000875af1158015610add573d6000803e3d6000fd5b505050506040513d601f19601f82011682018060405250810190610b01919061100b565b905080610b43576040517f08c379a0000000000000000000000000000000000000000000000000000000008152600401610b3a90611278565b60405180910390fd5b8273ffffffffffffffffffffffffffffffffffffffff167f6352c5382c4a4578e712449ca65e83cdb392d045dfcf1cad9615189db2da244b83604051610b899190610d54565b60405180910390a2505050565b610b9e610d33565b73ffffffffffffffffffffffffffffffffffffffff16610bbc6103c2565b73ffffffffffffffffffffffffffffffffffffffff1614610c1b57610bdf610d33565b6040517f118cdaa7000000000000000000000000000000000000000000000000000000008152600401610c129190610e88565b60405180910390fd5b565b6000600160009054906101000a900473ffffffffffffffffffffffffffffffffffffffff16905081600160006101000a81548173ffffffffffffffffffffffffffffffffffffffff021916908373ffffffffffffffffffffffffffffffffffffffff1602179055508173ffffffffffffffffffffffffffffffffffffffff168173ffffffffffffffffffffffffffffffffffffffff167f8be0079c531659141344cd1fd0a4f28419497f9722a3daafe3b4186f6b6457e060405160405180910390a35050565b600260005403610d1f576040517f3ee5aeb500000000000000000000000000000000000000000000000000000000815260040160405180910390fd5b6002600081905550565b6001600081905550565b600033905090565b6000819050919050565b610d4e81610d3b565b82525050565b6000602082019050610d696000830184610d45565b92915050565b600080fd5b600073ffffffffffffffffffffffffffffffffffffffff82169050919050565b6000610d9f82610d74565b9050919050565b610daf81610d94565b8114610dba57600080fd5b50565b600081359050610dcc81610da6565b92915050565b600060208284031215610de857610de7610d6f565b5b6000610df684828501610dbd565b91505092915050565b6000819050919050565b6000610e24610e1f610e1a84610d74565b610dff565b610d74565b9050919050565b6000610e3682610e09565b9050919050565b6000610e4882610e2b565b9050919050565b610e5881610e3d565b82525050565b6000602082019050610e736000830184610e4f565b92915050565b610e8281610d94565b82525050565b6000602082019050610e9d6000830184610e79565b92915050565b60008115159050919050565b610eb881610ea3565b82525050565b6000602082019050610ed36000830184610eaf565b92915050565b610ee281610d3b565b8114610eed57600080fd5b50565b600081359050610eff81610ed9565b92915050565b60008060408385031215610f1c57610f1b610d6f565b5b6000610f2a85828601610dbd565b9250506020610f3b85828601610ef0565b9150509250929050565b7f4e487b7100000000000000000000000000000000000000000000000000000000600052601160045260246000fd5b6000610f7f82610d3b565b9150610f8a83610d3b565b9250828203905081811115610fa257610fa1610f45565b5b92915050565b6000606082019050610fbd6000830186610e79565b610fca6020830185610e79565b610fd76040830184610d45565b949350505050565b610fe881610ea3565b8114610ff357600080fd5b50565b60008151905061100581610fdf565b92915050565b60006020828403121561102157611020610d6f565b5b600061102f84828501610ff6565b91505092915050565b600082825260208201905092915050565b7f546f6b656e207472616e73666572206661696c65640000000000000000000000600082015250565b600061107f601583611038565b915061108a82611049565b602082019050919050565b600060208201905081810360008301526110ae81611072565b9050919050565b60006110c082610d3b565b91506110cb83610d3b565b92508282019050808211156110e3576110e2610f45565b5b92915050565b7f43616e6e6f7420776974686472617720746f207a65726f206164647265737300600082015250565b600061111f601f83611038565b915061112a826110e9565b602082019050919050565b6000602082019050818103600083015261114e81611112565b9050919050565b600060408201905061116a6000830185610e79565b6111776020830184610d45565b9392505050565b7f57697468647261773a207472616e73666572206661696c656400000000000000600082015250565b60006111b4601983611038565b91506111bf8261117e565b602082019050919050565b600060208201905081810360008301526111e3816111a7565b9050919050565b6000815190506111f981610ed9565b92915050565b60006020828403121561121557611214610d6f565b5b6000611223848285016111ea565b91505092915050565b7f5769746864726177416c6c3a207472616e73666572206661696c656400000000600082015250565b6000611262601c83611038565b915061126d8261122c565b602082019050919050565b6000602082019050818103600083015261129181611255565b905091905056fea2646970667358221220a8e31021e1a4bd0d2067b3b133031e05719ff9f3c9d54d70ab2e07ecbe66c46864736f6c63430008140033",
  "linkReferences": {},
  "deployedLinkReferences": {}
}