{
  "_format": "hh-sol-artifact-1",
  "contractName": "SubscriptionManager",
  "sourceName": "contracts/SubscriptionManager.sol",
  "abi": [
    {
      "inputs": [
        {
          "internalType": "address",
          "name": "tokenAddress",
          "type": "address"
        },
        {
          "internalType": "uint256",
          "name": "_subscriptionFee",
          "type": "uint256"
        },
        {
          "internalType": "uint256",
          "name": "_subscriptionPeriod",
          "type": "uint256"
        }
      ],
      "stateMutability": "nonpayable",
      "type": "constructor"
    },
    {
      "inputs": [
        {
          "internalType": "address",
          "name": "owner",
          "type": "address"
        }
      ],
      "name": "OwnableInvalidOwner",
      "type": "error"
    },
    {
      "inputs": [
        {
          "internalType": "address",
          "name": "account",
          "type": "address"
        }
      ],
      "name": "OwnableUnauthorizedAccount",
      "type": "error"
    },
    {
      "inputs": [],
      "name": "ReentrancyGuardReentrantCall",
      "type": "error"
    },
    {
      "anonymous": false,
      "inputs": [
        {
          "indexed": true,
          "internalType": "address",
          "name": "previousOwner",
          "type": "address"
        },
        {
          "indexed": true,
          "internalType": "address",
          "name": "newOwner",
          "type": "address"
        }
      ],
      "name": "OwnershipTransferred",
      "type": "event"
    },
    {
      "anonymous": false,
      "inputs": [
        {
          "indexed": true,
          "internalType": "address",
          "name": "user",
          "type": "address"
        },
        {
          "indexed": false,
          "internalType": "uint256",
          "name": "expiresAt",
          "type": "uint256"
        }
      ],
      "name": "Subscribed",
      "type": "event"
    },
    {
      "anonymous": false,
      "inputs": [
        {
          "indexed": true,
          "internalType": "address",
          "name": "user",
          "type": "address"
        },
        {
          "indexed": false,
          "internalType": "uint256",
          "name": "amount",
          "type": "uint256"
        }
      ],
      "name": "TokensWithdrawn",
      "type": "event"
    },
    {
      "inputs": [],
      "name": "acceptedToken",
      "outputs": [
        {
          "internalType": "contract IERC20",
          "name": "",
          "type": "address"
        }
      ],
      "stateMutability": "view",
      "type": "function"
    },
    {
      "inputs": [
        {
          "internalType": "address",
          "name": "",
          "type": "address"
        }
      ],
      "name": "autoRenewEnabled",
      "outputs": [
        {
          "internalType": "bool",
          "name": "",
          "type": "bool"
        }
      ],
      "stateMutability": "view",
      "type": "function"
    },
    {
      "inputs": [
        {
          "internalType": "bytes",
          "name": "",
          "type": "bytes"
        }
      ],
      "name": "checkUpkeep",
      "outputs": [
        {
          "internalType": "bool",
          "name": "upkeepNeeded",
          "type": "bool"
        },
        {
          "internalType": "bytes",
          "name": "performData",
          "type": "bytes"
        }
      ],
      "stateMutability": "view",
      "type": "function"
    },
    {
      "inputs": [
        {
          "internalType": "address",
          "name": "user",
          "type": "address"
        }
      ],
      "name": "getRemainingTime",
      "outputs": [
        {
          "internalType": "uint256",
          "name": "",
          "type": "uint256"
        }
      ],
      "stateMutability": "view",
      "type": "function"
    },
    {
      "inputs": [
        {
          "internalType": "address",
          "name": "user",
          "type": "address"
        }
      ],
      "name": "isSubscribed",
      "outputs": [
        {
          "internalType": "bool",
          "name": "",
          "type": "bool"
        }
      ],
      "stateMutability": "view",
      "type": "function"
    },
    {
      "inputs": [],
      "name": "owner",
      "outputs": [
        {
          "internalType": "address",
          "name": "",
          "type": "address"
        }
      ],
      "stateMutability": "view",
      "type": "function"
    },
    {
      "inputs": [
        {
          "internalType": "bytes",
          "name": "performData",
          "type": "bytes"
        }
      ],
      "name": "performUpkeep",
      "outputs": [],
      "stateMutability": "nonpayable",
      "type": "function"
    },
    {
      "inputs": [],
      "name": "renounceOwnership",
      "outputs": [],
      "stateMutability": "nonpayable",
      "type": "function"
    },
    {
      "inputs": [
        {
          "internalType": "bool",
          "name": "enabled",
          "type": "bool"
        }
      ],
      "name": "setAutoRenew",
      "outputs": [],
      "stateMutability": "nonpayable",
      "type": "function"
    },
    {
      "inputs": [],
      "name": "subscribe",
      "outputs": [],
      "stateMutability": "nonpayable",
      "type": "function"
    },
    {
      "inputs": [
        {
          "internalType": "uint256",
          "name": "",
          "type": "uint256"
        }
      ],
      "name": "subscribers",
      "outputs": [
        {
          "internalType": "address",
          "name": "",
          "type": "address"
        }
      ],
      "stateMutability": "view",
      "type": "function"
    },
    {
      "inputs": [
        {
          "internalType": "address",
          "name": "",
          "type": "address"
        }
      ],
      "name": "subscriptionExpirations",
      "outputs": [
        {
          "internalType": "uint256",
          "name": "",
          "type": "uint256"
        }
      ],
      "stateMutability": "view",
      "type": "function"
    },
    {
      "inputs": [
        {
          "internalType": "address",
          "name": "user",
          "type": "address"
        }
      ],
      "name": "subscriptionExpiresAt",
      "outputs": [
        {
          "internalType": "uint256",
          "name": "",
          "type": "uint256"
        }
      ],
      "stateMutability": "view",
      "type": "function"
    },
    {
      "inputs": [],
      "name": "subscriptionFee",
      "outputs": [
        {
          "internalType": "uint256",
          "name": "",
          "type": "uint256"
        }
      ],
      "stateMutability": "view",
      "type": "function"
    },
    {
      "inputs": [],
      "name": "subscriptionPeriod",
      "outputs": [
        {
          "internalType": "uint256",
          "name": "",
          "type": "uint256"
        }
      ],
      "stateMutability": "view",
      "type": "function"
    },
    {
      "inputs": [
        {
          "internalType": "address",
          "name": "newOwner",
          "type": "address"
        }
      ],
      "name": "transferOwnership",
      "outputs": [],
      "stateMutability": "nonpayable",
      "type": "function"
    },
    {
      "inputs": [
        {
          "internalType": "address",
          "name": "to",
          "type": "address"
        },
        {
          "internalType": "uint256",
          "name": "amount",
          "type": "uint256"
        }
      ],
      "name": "withdraw",
      "outputs": [],
      "stateMutability": "nonpayable",
      "type": "function"
    },
    {
      "inputs": [
        {
          "internalType": "address",
          "name": "to",
          "type": "address"
        }
      ],
      "name": "withdrawAll",
      "outputs": [],
      "stateMutability": "nonpayable",
      "type": "function"
    }
  ],
  "bytecode": "0x60c06040523480156200001157600080fd5b506040516200204738038062002047833981810160405281019062000037919062000318565b336001600081905550600073ffffffffffffffffffffffffffffffffffffffff168173ffffffffffffffffffffffffffffffffffffffff1603620000b55760006040517f1e4fbdf7000000000000000000000000000000000000000000000000000000008152600401620000ac919062000385565b60405180910390fd5b620000c681620001ad60201b60201c565b50600082116200010d576040517f08c379a0000000000000000000000000000000000000000000000000000000008152600401620001049062000403565b60405180910390fd5b6000811162000153576040517f08c379a00000000000000000000000000000000000000000000000000000000081526004016200014a9062000475565b60405180910390fd5b82600260006101000a81548173ffffffffffffffffffffffffffffffffffffffff021916908373ffffffffffffffffffffffffffffffffffffffff16021790555081608081815250508060a0818152505050505062000497565b6000600160009054906101000a900473ffffffffffffffffffffffffffffffffffffffff16905081600160006101000a81548173ffffffffffffffffffffffffffffffffffffffff021916908373ffffffffffffffffffffffffffffffffffffffff1602179055508173ffffffffffffffffffffffffffffffffffffffff168173ffffffffffffffffffffffffffffffffffffffff167f8be0079c531659141344cd1fd0a4f28419497f9722a3daafe3b4186f6b6457e060405160405180910390a35050565b600080fd5b600073ffffffffffffffffffffffffffffffffffffffff82169050919050565b6000620002a58262000278565b9050919050565b620002b78162000298565b8114620002c357600080fd5b50565b600081519050620002d781620002ac565b92915050565b6000819050919050565b620002f281620002dd565b8114620002fe57600080fd5b50565b6000815190506200031281620002e7565b92915050565b60008060006060848603121562000334576200033362000273565b5b60006200034486828701620002c6565b9350506020620003578682870162000301565b92505060406200036a8682870162000301565b9150509250925092565b6200037f8162000298565b82525050565b60006020820190506200039c600083018462000374565b92915050565b600082825260208201905092915050565b7f466565206d7573742062652067726561746572207468616e2030000000000000600082015250565b6000620003eb601a83620003a2565b9150620003f882620003b3565b602082019050919050565b600060208201905081810360008301526200041e81620003dc565b9050919050565b7f506572696f64206d7573742062652067726561746572207468616e2030000000600082015250565b60006200045d601d83620003a2565b91506200046a8262000425565b602082019050919050565b6000602082019050818103600083015262000490816200044e565b9050919050565b60805160a051611b67620004e0600039600081816103aa0152818161060301528181610b1e0152610b9201526000818161038601528181610580015261095e0152611b676000f3fe608060405234801561001057600080fd5b50600436106101165760003560e01c8063715018a6116100a25780638f449a05116100715780638f449a05146102f6578063b92ae87c14610300578063f2fde38b14610330578063f3fef3a31461034c578063fa09e6301461036857610116565b8063715018a61461028257806376a249c71461028c578063867b9318146102bc5780638da5cb5b146102d857610116565b8063289e4657116100e9578063289e4657146101b7578063451c3d80146101e75780634585e33b1461020557806359221a68146102215780636e04ff0d1461025157610116565b80630aa0a1751461011b5780630ca2822c146101395780630e85117a146101575780632741c07414610187575b600080fd5b610123610384565b6040516101309190611325565b60405180910390f35b6101416103a8565b60405161014e9190611325565b60405180910390f35b610171600480360381019061016c91906113a8565b6103cc565b60405161017e9190611325565b60405180910390f35b6101a1600480360381019061019c91906113a8565b610437565b6040516101ae9190611325565b60405180910390f35b6101d160048036038101906101cc91906113a8565b610480565b6040516101de91906113f0565b60405180910390f35b6101ef6104a0565b6040516101fc919061146a565b60405180910390f35b61021f600480360381019061021a91906114ea565b6104c6565b005b61023b60048036038101906102369190611563565b610703565b604051610248919061159f565b60405180910390f35b61026b600480360381019061026691906114ea565b610742565b60405161027992919061164a565b60405180910390f35b61028a610862565b005b6102a660048036038101906102a191906113a8565b610876565b6040516102b39190611325565b60405180910390f35b6102d660048036038101906102d191906116a6565b61088e565b005b6102e06108e8565b6040516102ed919061159f565b60405180910390f35b6102fe610912565b005b61031a600480360381019061031591906113a8565b610c9a565b60405161032791906113f0565b60405180910390f35b61034a600480360381019061034591906113a8565b610ce5565b005b610366600480360381019061036191906116d3565b610d6b565b005b610382600480360381019061037d91906113a8565b610f19565b005b7f000000000000000000000000000000000000000000000000000000000000000081565b7f000000000000000000000000000000000000000000000000000000000000000081565b600080600460008473ffffffffffffffffffffffffffffffffffffffff1673ffffffffffffffffffffffffffffffffffffffff168152602001908152602001600020549050804210610422576000915050610432565b428161042e9190611742565b9150505b919050565b6000600460008373ffffffffffffffffffffffffffffffffffffffff1673ffffffffffffffffffffffffffffffffffffffff168152602001908152602001600020549050919050565b60056020528060005260406000206000915054906101000a900460ff1681565b600260009054906101000a900473ffffffffffffffffffffffffffffffffffffffff1681565b600082828101906104d791906117b4565b9050600560008273ffffffffffffffffffffffffffffffffffffffff1673ffffffffffffffffffffffffffffffffffffffff16815260200190815260200160002060009054906101000a900460ff168015610539575061053681610437565b42115b156106fe57600260009054906101000a900473ffffffffffffffffffffffffffffffffffffffff1673ffffffffffffffffffffffffffffffffffffffff166323b872dd82307f00000000000000000000000000000000000000000000000000000000000000006040518463ffffffff1660e01b81526004016105bd939291906117e1565b6020604051808303816000875af11580156105dc573d6000803e3d6000fd5b505050506040513d601f19601f82011682018060405250810190610600919061182d565b507f00000000000000000000000000000000000000000000000000000000000000004261062d919061185a565b600460008373ffffffffffffffffffffffffffffffffffffffff1673ffffffffffffffffffffffffffffffffffffffff168152602001908152602001600020819055508073ffffffffffffffffffffffffffffffffffffffff167f4b90d6788928d63c1821907a6a8b95f40d26562d8fe41b105f7489db9966dfcb600460008473ffffffffffffffffffffffffffffffffffffffff1673ffffffffffffffffffffffffffffffffffffffff168152602001908152602001600020546040516106f59190611325565b60405180910390a25b505050565b6003818154811061071357600080fd5b906000526020600020016000915054906101000a900473ffffffffffffffffffffffffffffffffffffffff1681565b6000606060005b6003805490508110156108435760006003828154811061076c5761076b61188e565b5b9060005260206000200160009054906101000a900473ffffffffffffffffffffffffffffffffffffffff169050600560008273ffffffffffffffffffffffffffffffffffffffff1673ffffffffffffffffffffffffffffffffffffffff16815260200190815260200160002060009054906101000a900460ff1680156107f957506107f681610437565b42115b1561082f576001935080604051602001610813919061159f565b604051602081830303815290604052925060019350505061085b565b50808061083b906118bd565b915050610749565b50600060405180602001604052806000815250915091505b9250929050565b61086a611167565b61087460006111ee565b565b60046020528060005260406000206000915090505481565b80600560003373ffffffffffffffffffffffffffffffffffffffff1673ffffffffffffffffffffffffffffffffffffffff16815260200190815260200160002060006101000a81548160ff02191690831515021790555050565b6000600160009054906101000a900473ffffffffffffffffffffffffffffffffffffffff16905090565b61091a6112b4565b6000600260009054906101000a900473ffffffffffffffffffffffffffffffffffffffff1673ffffffffffffffffffffffffffffffffffffffff166323b872dd33307f00000000000000000000000000000000000000000000000000000000000000006040518463ffffffff1660e01b815260040161099b939291906117e1565b6020604051808303816000875af11580156109ba573d6000803e3d6000fd5b505050506040513d601f19601f820116820180604052508101906109de919061182d565b905080610a20576040517f08c379a0000000000000000000000000000000000000000000000000000000008152600401610a1790611962565b60405180910390fd5b6000600460003373ffffffffffffffffffffffffffffffffffffffff1673ffffffffffffffffffffffffffffffffffffffff16815260200190815260200160002054905060004290506000600460003373ffffffffffffffffffffffffffffffffffffffff1673ffffffffffffffffffffffffffffffffffffffff1681526020019081526020016000205403610b14576003339080600181540180825580915050600190039060005260206000200160009091909190916101000a81548173ffffffffffffffffffffffffffffffffffffffff021916908373ffffffffffffffffffffffffffffffffffffffff1602179055505b80821115610b90577f000000000000000000000000000000000000000000000000000000000000000082610b48919061185a565b600460003373ffffffffffffffffffffffffffffffffffffffff1673ffffffffffffffffffffffffffffffffffffffff16815260200190815260200160002081905550610c00565b7f000000000000000000000000000000000000000000000000000000000000000081610bbc919061185a565b600460003373ffffffffffffffffffffffffffffffffffffffff1673ffffffffffffffffffffffffffffffffffffffff168152602001908152602001600020819055505b3373ffffffffffffffffffffffffffffffffffffffff167f4b90d6788928d63c1821907a6a8b95f40d26562d8fe41b105f7489db9966dfcb600460003373ffffffffffffffffffffffffffffffffffffffff1673ffffffffffffffffffffffffffffffffffffffff16815260200190815260200160002054604051610c859190611325565b60405180910390a2505050610c986112fa565b565b6000600460008373ffffffffffffffffffffffffffffffffffffffff1673ffffffffffffffffffffffffffffffffffffffff1681526020019081526020016000205442109050919050565b610ced611167565b600073ffffffffffffffffffffffffffffffffffffffff168173ffffffffffffffffffffffffffffffffffffffff1603610d5f5760006040517f1e4fbdf7000000000000000000000000000000000000000000000000000000008152600401610d56919061159f565b60405180910390fd5b610d68816111ee565b50565b610d73611167565b600073ffffffffffffffffffffffffffffffffffffffff168273ffffffffffffffffffffffffffffffffffffffff1603610de2576040517f08c379a0000000000000000000000000000000000000000000000000000000008152600401610dd9906119ce565b60405180910390fd5b6000600260009054906101000a900473ffffffffffffffffffffffffffffffffffffffff1673ffffffffffffffffffffffffffffffffffffffff1663a9059cbb84846040518363ffffffff1660e01b8152600401610e419291906119ee565b6020604051808303816000875af1158015610e60573d6000803e3d6000fd5b505050506040513d601f19601f82011682018060405250810190610e84919061182d565b905080610ec6576040517f08c379a0000000000000000000000000000000000000000000000000000000008152600401610ebd90611a63565b60405180910390fd5b8273ffffffffffffffffffffffffffffffffffffffff167f6352c5382c4a4578e712449ca65e83cdb392d045dfcf1cad9615189db2da244b83604051610f0c9190611325565b60405180910390a2505050565b610f21611167565b600073ffffffffffffffffffffffffffffffffffffffff168173ffffffffffffffffffffffffffffffffffffffff1603610f90576040517f08c379a0000000000000000000000000000000000000000000000000000000008152600401610f87906119ce565b60405180910390fd5b6000600260009054906101000a900473ffffffffffffffffffffffffffffffffffffffff1673ffffffffffffffffffffffffffffffffffffffff166370a08231306040518263ffffffff1660e01b8152600401610fed919061159f565b602060405180830381865afa15801561100a573d6000803e3d6000fd5b505050506040513d601f19601f8201168201806040525081019061102e9190611a98565b90506000600260009054906101000a900473ffffffffffffffffffffffffffffffffffffffff1673ffffffffffffffffffffffffffffffffffffffff1663a9059cbb84846040518363ffffffff1660e01b815260040161108f9291906119ee565b6020604051808303816000875af11580156110ae573d6000803e3d6000fd5b505050506040513d601f19601f820116820180604052508101906110d2919061182d565b905080611114576040517f08c379a000000000000000000000000000000000000000000000000000000000815260040161110b90611b11565b60405180910390fd5b8273ffffffffffffffffffffffffffffffffffffffff167f6352c5382c4a4578e712449ca65e83cdb392d045dfcf1cad9615189db2da244b8360405161115a9190611325565b60405180910390a2505050565b61116f611304565b73ffffffffffffffffffffffffffffffffffffffff1661118d6108e8565b73ffffffffffffffffffffffffffffffffffffffff16146111ec576111b0611304565b6040517f118cdaa70000000000000000000000000000000000000000000000000000000081526004016111e3919061159f565b60405180910390fd5b565b6000600160009054906101000a900473ffffffffffffffffffffffffffffffffffffffff16905081600160006101000a81548173ffffffffffffffffffffffffffffffffffffffff021916908373ffffffffffffffffffffffffffffffffffffffff1602179055508173ffffffffffffffffffffffffffffffffffffffff168173ffffffffffffffffffffffffffffffffffffffff167f8be0079c531659141344cd1fd0a4f28419497f9722a3daafe3b4186f6b6457e060405160405180910390a35050565b6002600054036112f0576040517f3ee5aeb500000000000000000000000000000000000000000000000000000000815260040160405180910390fd5b6002600081905550565b6001600081905550565b600033905090565b6000819050919050565b61131f8161130c565b82525050565b600060208201905061133a6000830184611316565b92915050565b600080fd5b600080fd5b600073ffffffffffffffffffffffffffffffffffffffff82169050919050565b60006113758261134a565b9050919050565b6113858161136a565b811461139057600080fd5b50565b6000813590506113a28161137c565b92915050565b6000602082840312156113be576113bd611340565b5b60006113cc84828501611393565b91505092915050565b60008115159050919050565b6113ea816113d5565b82525050565b600060208201905061140560008301846113e1565b92915050565b6000819050919050565b600061143061142b6114268461134a565b61140b565b61134a565b9050919050565b600061144282611415565b9050919050565b600061145482611437565b9050919050565b61146481611449565b82525050565b600060208201905061147f600083018461145b565b92915050565b600080fd5b600080fd5b600080fd5b60008083601f8401126114aa576114a9611485565b5b8235905067ffffffffffffffff8111156114c7576114c661148a565b5b6020830191508360018202830111156114e3576114e261148f565b5b9250929050565b6000806020838503121561150157611500611340565b5b600083013567ffffffffffffffff81111561151f5761151e611345565b5b61152b85828601611494565b92509250509250929050565b6115408161130c565b811461154b57600080fd5b50565b60008135905061155d81611537565b92915050565b60006020828403121561157957611578611340565b5b60006115878482850161154e565b91505092915050565b6115998161136a565b82525050565b60006020820190506115b46000830184611590565b92915050565b600081519050919050565b600082825260208201905092915050565b60005b838110156115f45780820151818401526020810190506115d9565b60008484015250505050565b6000601f19601f8301169050919050565b600061161c826115ba565b61162681856115c5565b93506116368185602086016115d6565b61163f81611600565b840191505092915050565b600060408201905061165f60008301856113e1565b81810360208301526116718184611611565b90509392505050565b611683816113d5565b811461168e57600080fd5b50565b6000813590506116a08161167a565b92915050565b6000602082840312156116bc576116bb611340565b5b60006116ca84828501611691565b91505092915050565b600080604083850312156116ea576116e9611340565b5b60006116f885828601611393565b92505060206117098582860161154e565b9150509250929050565b7f4e487b7100000000000000000000000000000000000000000000000000000000600052601160045260246000fd5b600061174d8261130c565b91506117588361130c565b92508282039050818111156117705761176f611713565b5b92915050565b60006117818261134a565b9050919050565b61179181611776565b811461179c57600080fd5b50565b6000813590506117ae81611788565b92915050565b6000602082840312156117ca576117c9611340565b5b60006117d88482850161179f565b91505092915050565b60006060820190506117f66000830186611590565b6118036020830185611590565b6118106040830184611316565b949350505050565b6000815190506118278161167a565b92915050565b60006020828403121561184357611842611340565b5b600061185184828501611818565b91505092915050565b60006118658261130c565b91506118708361130c565b925082820190508082111561188857611887611713565b5b92915050565b7f4e487b7100000000000000000000000000000000000000000000000000000000600052603260045260246000fd5b60006118c88261130c565b91507fffffffffffffffffffffffffffffffffffffffffffffffffffffffffffffffff82036118fa576118f9611713565b5b600182019050919050565b600082825260208201905092915050565b7f546f6b656e207472616e73666572206661696c65640000000000000000000000600082015250565b600061194c601583611905565b915061195782611916565b602082019050919050565b6000602082019050818103600083015261197b8161193f565b9050919050565b7f43616e6e6f7420776974686472617720746f207a65726f206164647265737300600082015250565b60006119b8601f83611905565b91506119c382611982565b602082019050919050565b600060208201905081810360008301526119e7816119ab565b9050919050565b6000604082019050611a036000830185611590565b611a106020830184611316565b9392505050565b7f57697468647261773a207472616e73666572206661696c656400000000000000600082015250565b6000611a4d601983611905565b9150611a5882611a17565b602082019050919050565b60006020820190508181036000830152611a7c81611a40565b9050919050565b600081519050611a9281611537565b92915050565b600060208284031215611aae57611aad611340565b5b6000611abc84828501611a83565b91505092915050565b7f5769746864726177416c6c3a207472616e73666572206661696c656400000000600082015250565b6000611afb601c83611905565b9150611b0682611ac5565b602082019050919050565b60006020820190508181036000830152611b2a81611aee565b905091905056fea264697066735822122050e920c06ddde29fe0d4dc072b5e00cfe993560c0e9b2f28ac27f4dfe8baf11164736f6c63430008140033",
  "linkReferences": {},
  "deployedLinkReferences": {}
}